:100000000C942A000C9447000C9447000C94470071
:100010000C9447000C9447000C9447000C949000FB
:100020000C9447000C9447000C9447000C94470034
:100030000C9447000C9447000C9447000C94470024
:100040000C9447000C9447000C9447000C94470014
:100050000C94470011241FBECFE5D8E0DEBFCDBF12
:1000600010E0A0E6B0E0E8E3F1E002C005900D92F8
:10007000AA36B107D9F710E0AAE6B0E001C01D9298
:10008000A337B107E1F70E9466000C949A000C9424
:1000900000008EB588608EBD8EB584608EBD89E00F
:1000A0009DE39BBD8ABD89B7806189BF08958FEFAD
:1000B00084BB85BB0895E0E6F0E0E80FF11D808188
:1000C00085BB089580916A0085BB08950E94490010
:1000D0008FEF84BB85BB7894B89A889A909A3091B8
:1000E0006A002AE048EC50E0E22FF0E0E05AFF4FCF
:1000F000808185BB80E197E2FA013197F1F70197A2
:10010000D9F7222359F435BBC09A80E593ECFA0164
:100110003197F1F70197D9F7C0982AE02150E4CF41
:100120001F920F920FB60F9211240F900FBE0F90D7
:080130001F901895F894FFCF11
:0A013800FC60DBF266B7BFE0FEF7E3
:00000001FF
