:100000000C942A000C9447000C9447000C94470071
:100010000C9447000C9447000C9447000C94AF00DC
:100020000C9447000C9447000C9447000C94470034
:100030000C9447000C9447000C9447000C94470024
:100040000C9447000C9447000C9447000C94470014
:100050000C94470011241FBECFE5D8E0DEBFCDBF12
:1000600010E0A0E6B0E0EAECF1E002C005900D92ED
:10007000AC36B107D9F710E0ACE6B0E001C01D9294
:10008000A937B107E1F70E9466000C94E3000C94D5
:1000900000008EB588608EBD8EB584608EBD89E00F
:1000A0009DE39BBD8ABD89B7806189BF08958FEFAD
:1000B00084BB85BB0895E0E6F0E0E80FF11D808188
:1000C00085BB089580916D0085BB08950E9449000D
:1000D0008FEF84BB85BB789487BB12BA87EF809380
:1000E0006A001092700020916D0048EC50E039E0F9
:1000F00080916A0087FD0CC080916A008A3044F4C8
:10010000E0916A00F0E0E05AFF4F808185BB01C0BA
:1001100025BB80916E00813061F425BBC09A80E5DB
:1001200093ECFA013197F1F70197D9F7C098109243
:100130006E00809BDDCF80917000882331F080912C
:100140006F008F5F80936F0007C030936A008091CB
:1001500070008F5F809370008099FECFC9CF1F928F
:100160000F920FB60F9211248F9380917000882305
:1001700021F180916F00882399F480916E0088238B
:1001800079F480916A00815080936A0080916A00BE
:1001900087FF06C081E080936E0089E080936A004B
:1001A00080916F0080916F0082303CF010926F0060
:1001B00010926E0089E080936A008F910F900FBEBD
:0A01C0000F901F901895F894FFCFE0
:0C01CA007E306D79335B5F707F7BF70047
:00000001FF
