:100000000C942A000C9447000C9447000C94470071
:100010000C9447000C9447000C9447000C94470044
:100020000C9447000C9447000C9447000C94470034
:100030000C9447000C9447000C9447000C94470024
:100040000C9447000C9447000C9447000C94470014
:100050000C94470011241FBECFE5D8E0DEBFCDBF12
:1000600010E0A0E6B0E0EAEDFEE002C005900D92DF
:10007000A03DB107D9F710E0A0EDB0E001C01D929E
:10008000AA3DB107E1F70E9483040C946B070C941E
:10009000000080FF02C0C29A01C0C29881FF02C066
:1000A000C39A01C0C39882FF02C0C49A01C0C49819
:1000B00083FF02C0C59A0895C59808951F93182F0D
:1000C000C19A82958F700E944900C198C19A812F70
:1000D0000E944900C19885E88A95F1F71F9108951B
:1000E000C0980E945E000895C09A0E945E00089524
:1000F000CF93DF93EC0103C021960E9474008881A6
:100100008823D1F7DF91CF9108956295660F660F2E
:10011000607C680F862F80680E947000089581E0DF
:100120000E94700080EA9FE00197F1F7089582E055
:100130000E94700080EA9FE00197F1F708951F93F5
:10014000CF93DF93BA9ABB9ABC9ABD9AB99AB89AE0
:1001500080E395E70197F1F7C098C19810E0C0E1FE
:10016000D7E2C19A83E00E944900C198CE0101976D
:10017000F1F71F5F1330A9F7C19A82E00E9449008E
:10018000C19880ED97E00197F1F788E20E94700036
:1001900088E00E94700081E00E94700080EA9FE089
:1001A0000197F1F786E00E9470008CE00E947000D9
:1001B000DF91CF911F9108951092D1001092D0003D
:1001C0008DE99FEF9093BF008093BE00089560E09B
:1001D00070E0A1E0B0E0E0EDF7E082B39D01062E13
:1001E00002C0220F331F0A94E2F7922F90959823B2
:1001F00092BB47E050E080B390E0042E02C095959A
:1002000087950A94E2F780FD0DC082B3282B22BBAC
:100210009B01220F331F220F331F241B350B285F36
:100220003F4F12C0415050404330510521F782B337
:10023000282B22BBCF010197F1F76F5F7F4F64300E
:10024000710559F62FEF3FEFC90108950F931F93E2
:10025000CF93DF934FEF5FEF60E070E020E030E09E
:1002600001E010E0C0E2DEE4A8ECB0E0C801062E38
:1002700002C0880F991F0A94E2F782BBCE01019752
:10028000F1F78499A901859B03C0A9014F5F5F4FD6
:10029000869B03C0A9014E5F5F4F879B03C0A901E6
:1002A0004D5F5F4F84EF91E0FD013197F1F70197CA
:1002B000D9F76F5F7F4F2C5F3F4F64307105B1F608
:1002C000CA01DF91CF911F910F910895FC01E05475
:1002D000FF4F808108952091D0003091D100A90175
:1002E00073E0440F551F7A95E1F7220F331F420F39
:1002F000531F480F591F5093D1004093D0000895C9
:1003000097FDE9C08630910509F484C087309105D6
:10031000ACF48230910509F44AC08330910534F47D
:10032000009719F1019709F0D6C030C084309105CB
:1003300009F44EC0059709F0CEC05BC08A30910524
:1003400009F49BC08B30910544F48830910509F481
:1003500072C0099709F0BFC07FC08B30910509F4C6
:10036000B0C00D9709F0B7C099C08091D0009091AE
:10037000D1009C01B3E0220F331FBA95E1F7880F3B
:10038000991F280F391F295F3F4F96C08091D000D9
:100390009091D1009C01F3E0220F331FFA95E1F711
:1003A000880F991F280F391F285F3F4F85C0809104
:1003B000D0009091D1009C0173E0220F331F7A95F9
:1003C000E1F7880F991F280F391F275F3F4F74C02F
:1003D0008091D0009091D1009C0153E0220F331FF7
:1003E0005A95E1F7880F991F280F391F2C5F3F4F4F
:1003F00063C08091D0009091D1009C01B3E0220FA6
:10040000331FBA95E1F7880F991F280F391F2B5F0B
:100410003F4F52C08091D0009091D1009C01F3E0F9
:10042000220F331FFA95E1F7880F991F280F391F04
:100430002A5F3F4F41C08091D0009091D1009C0134
:1004400073E0220F331F7A95E1F7880F991F280F69
:10045000391F2F5F3F4F30C08091D0009091D10065
:100460009C0153E0220F331F5A95E1F7880F991F23
:10047000280F391F2E5F3F4F1FC08091D0009091F1
:10048000D1009C01B3E0220F331FBA95E1F7880F2A
:10049000991F280F391F2D5F3F4F0EC08091D0004C
:1004A0009091D1009C01F3E0220F331FFA95E1F700
:1004B000880F991F280F391F3093D1002093D00047
:1004C00008951092D1001092D0008DE99FEF909383
:1004D000BF008093BE0008950F931F93CF93DF93C7
:1004E00012BA0E948F0080E060E00E94850080E6E2
:1004F00090E00E9478000E949F000E94970040E0D8
:1005000050E061E070E0443051055CF421B3CB0170
:10051000042E02C0880F991F0A94E2F7282B21BBF2
:100520000BC021B3CB01042E02C0880F991F0A947F
:10053000E2F78095822381BB22B3CB01042E02C057
:10054000880F991F0A94E2F7282B22BB4F5F5F4F59
:1005500048305105C1F608EC10E00E94E700EC01BC
:100560008091BE009091BF00C817D907B1F3FE017A
:10057000E054FF4F80818093D2000E948F0080E082
:1005800060E00E94850082ED90E00E94780088EE95
:1005900093E0F8013197F1F70197D9F7D093BF00B5
:1005A000C093BE00DACF0F931F93CF93DF93C0E0C9
:1005B000D0E000ED17E00E94E7009C018091BE00B2
:1005C0009091BF002817390749F08FEF2F3F380768
:1005D00029F03093BF002093BE0008C02196C801C7
:1005E0000197F1F787E2C031D80729F70E948F0001
:1005F00080E060E00E94850081E690E00E94780043
:100600001092D1001092D0008DE99FEF9093BF001F
:100610008093BE00DF91CF911F910F9108950E94AA
:100620008F0080E060E00E9485008DE690E00E94EF
:10063000780080E061E00E9485008AE790E00E94F7
:10064000780080E593EC28EC30E0F9013197F1F780
:100650000197D9F708958F929F92AF92BF92CF9250
:10066000DF92EF92FF920F931F93CF93DF9312BA13
:100670000E949F000E94970040E050E061E070E01F
:10068000443051055CF421B3CB01042E02C0880F25
:10069000991F0A94E2F7282B21BB0BC021B3CB0191
:1006A000042E02C0880F991F0A94E2F780958223D6
:1006B00081BB22B3CB01042E02C0880F991F0A947C
:1006C000E2F7282B22BB4F5F5F4F48305105C1F640
:1006D0000E940F030E948F0080E060E00E9485006E
:1006E00081E690E00E94780002ED10E0F0E28F2EAB
:1006F000FEE49F2EEBEBAE2EE0E0BE2E77E8C72E99
:1007000070E0D72E65EEE62E67E0F62E0E94E70039
:10071000EC018091BE009091BF00C817D907B1F3DA
:10072000FE01E054FF4FE0818E2F80538A30B0F4F9
:100730008091D0009091D1009C0153E0220F331F93
:100740005A95E1F7880F991F280F391F2053304021
:100750002E0F311D3093D1002093D0008091D00016
:100760009091D100865E974074F00E948F0080E0E7
:1007700060E00E94850081E690E00E94780010927F
:10078000D1001092D0008091D0009091D10033E040
:10079000893E93070CF48DC000D000D000D0EDB797
:1007A000FEB73196ADB7BEB712961C930E93119754
:1007B000D382C2829701281B390B358324830E9480
:1007C00093048DB79EB706960FB6F8949EBF0FBEE2
:1007D0008DBF0E948F0080E060E00E948500C8010C
:1007E0000E9478008091D0009091D100D701A81B81
:1007F000B90BA231B10564F4C80163E970E00E944D
:100800008C0480E061E00E948500C8010E947800AD
:100810008091D0009091D1009701281B390BC9011C
:100820004297079770F482ED90E062EA70E00E94D0
:100830008C0480E061E00E94850082ED90E00E94DF
:1008400078008091D0009091D100D701A81BB90BFE
:10085000CD014997889770F482ED90E06AEA70E0E4
:100860000E948C0480E061E00E94850082ED90E0AF
:100870000E9478008091D0009091D1009701281BB0
:10088000390B2134310574F082ED90E064EB70E0B7
:100890000E948C0480E061E00E94850082ED90E07F
:1008A0000E947800D093BF00C093BE000E94D30284
:1008B00022C000D000D000D0EDB7FEB73196ADB762
:1008C000BEB712961C930E931197B382A2829583A2
:1008D00084830E9493042DB73EB72A5F3F4F0FB623
:1008E000F8943EBF0FBE2DBF80E061E00E948500FE
:1008F000C8010E947800C4010197F1F7D093BF00AE
:10090000C093BE0003CF0E949F000E9497000E94E8
:100910002B0380E090E00895FB01DC0101900D9233
:100920000020E1F70895AEE0B0E0E9E9F4E00C94CE
:1009300042070D891E8986E08C831A8309838FEF15
:100940009FE79E838D839E01275E3F4FCE010196D8
:100950006F89788DA9010E94B7042F813885020F15
:10096000131FF80110822E96E4E00C945E07ABE0B2
:10097000B0E0EDEBF4E00C9434073C012B015A019C
:10098000FC0117821682838181FD03C06FEF7FEF28
:10099000C6C19AE0892E1E010894211C311CF30166
:1009A0002381F20123FD859123FF81912F0188236B
:1009B00009F4B2C1853239F423FD859123FF819179
:1009C0002F01853229F490E0B3010E94AA06E7CFF7
:1009D000982FFF24EE249924FFE1FF15D0F09B32DD
:1009E00069F09C3228F4903259F0933291F40EC0A1
:1009F0009D3249F0903369F441E024C052E0F52A79
:100A000084E0F82A28C098E0F92A25C0E0E1FE2A0F
:100A100022C0F7FC29C0892F80538A3070F4F6FE7B
:100A200005C0989C902C1124980E15C0E89CE02CD1
:100A30001124E80EF0E2FF2A0EC09E3229F4F6FCE3
:100A40006BC140E4F42A07C09C3619F450E8F52A3B
:100A500002C0983649F4F20123FD959123FF91914C
:100A60002F01992309F0B8CF892F8554833018F0CE
:100A70008052833038F444E050E0A40EB51E5FE3AA
:100A800059830FC0933631F0933779F0933509F0DD
:100A900056C020C0F5018081898342E050E0A40E59
:100AA000B51E610101E010E012C0F501C080D180E7
:100AB000F6FC03C06FEF7FEF02C0692D70E042E0EB
:100AC00050E0A40EB51EC6010E949F068C015FE790
:100AD000F52214C0F501C080D180F6FC03C06FEF91
:100AE0007FEF02C0692D70E042E050E0A40EB51E19
:100AF000C6010E9494068C0150E8F52AF3FE07C057
:100B00001AC080E290E0B3010E94AA06EA948E2DFA
:100B100090E008171907A8F30EC0F601F7FC8591BD
:100B2000F7FE81916F0190E0B3010E94AA06E110E7
:100B3000EA94015010400115110579F7EAC0943686
:100B400011F0993669F5F7FE08C0F5012081318171
:100B50004281538184E090E00AC0F5018081918157
:100B60009C01442737FD4095542F82E090E0A80E69
:100B7000B91E9FE6F92257FF09C050954095309560
:100B800021953F4F4F4F5F4FE0E8FE2ACA01B90160
:100B9000A1012AE030E00E94D606D82ED21840C02B
:100BA000953729F41F2D1F7E2AE030E01DC01F2D30
:100BB000197F9F3661F0903720F4983509F0ACC06A
:100BC0000FC0903739F0983709F0A6C004C028E06C
:100BD00030E00AC0106114FD146020E130E004C070
:100BE00014FD166020E132E017FF08C0F5016081B6
:100BF00071818281938144E050E008C0F5018081D9
:100C00009181BC0180E090E042E050E0A40EB51E6E
:100C1000A1010E94D606D82ED2188FE7F82EF12215
:100C2000F6FE0BC05EEFF522D91438F4F4FE07C0CF
:100C3000F2FC05C08FEEF82202C01D2D01C0192D57
:100C4000F4FE0DC0FE01ED0DF11D8081803319F41D
:100C500099EEF92208C01F5FF2FE05C003C08F2D78
:100C6000867809F01F5F0F2DF3FC14C0F0FE0FC053
:100C70001E1510F09D2C0BC09D2C9E0C911A1E2D44
:100C800006C080E290E0B3010E94AA061F5F1E1515
:100C9000C0F304C01E1510F4E11A01C0EE2404FFD5
:100CA0000FC080E390E0B3010E94AA0602FF1DC0BE
:100CB00001FD03C088E790E00EC088E590E00BC01E
:100CC000802F867891F001FF02C08BE201C080E2A4
:100CD000F7FC8DE290E0B3010E94AA0606C080E313
:100CE00090E0B3010E94AA069A94D914C0F3DA9452
:100CF000F101ED0DF11D808190E0B3010E94AA0683
:100D0000DD20A9F706C080E290E0B3010E94AA06A8
:100D1000EA94EE20C1F743CEF30166817781CB01DF
:100D20002B96E2E10C945007FC0105906150704055
:100D30000110D8F7809590958E0F9F1F0895FC01A4
:100D40006150704001900110D8F7809590958E0FFA
:100D50009F1F08950F931F93CF93DF938C01EB0197
:100D60008B8181FF1BC082FF0DC02E813F818C8152
:100D70009D812817390764F4E881F9810193F9838B
:100D8000E88306C0E885F985802F0995892B31F421
:100D90008E819F8101969F838E8302C00FEF1FEF8C
:100DA000C801DF91CF911F910F910895FA01AA27F1
:100DB000283051F1203181F1E8946F936E7F6E5F9E
:100DC0007F4F8F4F9F4FAF4FB1E03ED0B4E03CD04C
:100DD000670F781F891F9A1FA11D680F791F8A1F2F
:100DE000911DA11D6A0F711D811D911DA11D20D096
:100DF00009F468943F912AE0269F11243019305D50
:100E00003193DEF6CF010895462F4770405D419340
:100E1000B3E00FD0C9F7F6CF462F4F70405D4A338D
:100E200018F0495D31FD4052419302D0A9F7EACF55
:100E3000B4E0A6959795879577956795BA95C9F784
:100E400000976105710508959B01AC010A2E069477
:100E50005795479537952795BA95C9F7620F731F30
:100E6000841F951FA01D08952F923F924F925F926D
:100E70006F927F928F929F92AF92BF92CF92DF92AA
:100E8000EF92FF920F931F93CF93DF93CDB7DEB70F
:100E9000CA1BDB0B0FB6F894DEBF0FBECDBF0994A3
:100EA0002A88398848885F846E847D848C849B84FA
:100EB000AA84B984C884DF80EE80FD800C811B8108
:100EC000AA81B981CE0FD11D0FB6F894DEBF0FBE37
:0A0ED000CDBFED010895F894FFCFA7
:100EDA0000506F64616A207769656B3A0050726FDF
:100EEA006772616D206C616231004F626C69637A6E
:100EFA0061207769656B004D61737A202564206CE7
:100F0A006174004E696570656C6E696F6C65746EAC
:100F1A00690053747564656E7400507261636F770B
:100F2A006E696B00456D65727974002564009DFFDA
:100F3A003738392D3435362B313233432A30233D75
:00000001FF
