:100000000C942A000C9447000C9447000C94470071
:100010000C9447000C9447000C9447000C94470044
:100020000C9447000C9447000C9447000C94470034
:100030000C9447000C9447000C9447000C94470024
:100040000C9447000C9447000C9447000C94470014
:100050000C94470011241FBECFE5D8E0DEBFCDBF12
:1000600010E0A0E6B0E0ECEEFBE002C005900D92DF
:10007000A83AB107D9F710E0A8EAB0E001C01D9294
:10008000A23BB107E1F70E9413030C94F4050C9412
:10009000000080FF02C0C29A01C0C29881FF02C066
:1000A000C39A01C0C39882FF02C0C49A01C0C49819
:1000B00083FF02C0C59A0895C59808951F93182F0D
:1000C000C19A82958F700E944900C198C19A812F70
:1000D0000E944900C19885E88A95F1F71F9108951B
:1000E000C0980E945E000895C09A0E945E00089524
:1000F000CF93DF93EC0103C021960E9474008881A6
:100100008823D1F7DF91CF9108956295660F660F2E
:10011000607C680F862F80680E947000089581E0DF
:100120000E94700080EA9FE00197F1F7089582E055
:100130000E94700080EA9FE00197F1F708951F93F5
:10014000CF93DF93BA9ABB9ABC9ABD9AB99AB89AE0
:1001500080E395E70197F1F7C098C19810E0C0E1FE
:10016000D7E2C19A83E00E944900C198CE0101976D
:10017000F1F71F5F1330A9F7C19A82E00E9449008E
:10018000C19880ED97E00197F1F788E20E94700036
:1001900088E00E94700081E00E94700080EA9FE089
:1001A0000197F1F786E00E9470008CE00E947000D9
:1001B000DF91CF911F9108951092A9001092A8008D
:1001C0008DE99FEF909396008093950008954FEFEF
:1001D0005FEF60E070E020E030E0A1E0B0E0E0E25E
:1001E000FEE4CD01062E02C0880F991F0A94E2F7A3
:1001F00082BBCF010197F1F78499A901859B03C0C8
:10020000A9014F5F5F4F869B03C0A9014E5F5F4FFF
:10021000879B03C0A9014D5F5F4F6F5F7F4F2C5FCE
:100220003F4F64307105E9F6CA010895FC01E956B3
:10023000FF4F808108952091A8003091A900A90165
:1002400073E0440F551F7A95E1F7220F331F420FD9
:10025000531F480F591F5093A9004093A8000895B9
:1002600097FDE9C08630910509F484C08730910577
:10027000ACF48230910509F44AC08330910534F41E
:10028000009719F1019709F0D6C030C0843091056C
:1002900009F44EC0059709F0CEC05BC08A309105C5
:1002A00009F49BC08B30910544F48830910509F422
:1002B00072C0099709F0BFC07FC08B30910509F467
:1002C000B0C00D9709F0B7C099C08091A800909177
:1002D000A9009C01B3E0220F331FBA95E1F7880F04
:1002E000991F280F391F295F3F4F96C08091A800A2
:1002F0009091A9009C01F3E0220F331FFA95E1F7DA
:10030000880F991F280F391F285F3F4F85C08091A4
:10031000A8009091A9009C0173E0220F331F7A95E9
:10032000E1F7880F991F280F391F275F3F4F74C0CF
:100330008091A8009091A9009C0153E0220F331FE7
:100340005A95E1F7880F991F280F391F2C5F3F4FEF
:1003500063C08091A8009091A9009C01B3E0220F96
:10036000331FBA95E1F7880F991F280F391F2B5FAC
:100370003F4F52C08091A8009091A9009C01F3E0EA
:10038000220F331FFA95E1F7880F991F280F391FA5
:100390002A5F3F4F41C08091A8009091A9009C0125
:1003A00073E0220F331F7A95E1F7880F991F280F0A
:1003B000391F2F5F3F4F30C08091A8009091A90056
:1003C0009C0153E0220F331F5A95E1F7880F991FC4
:1003D000280F391F2E5F3F4F1FC08091A8009091BA
:1003E000A9009C01B3E0220F331FBA95E1F7880FF3
:1003F000991F280F391F2D5F3F4F0EC08091A80015
:100400009091A9009C01F3E0220F331FFA95E1F7C8
:10041000880F991F280F391F3093A9002093A80037
:1004200008951092A9001092A8008DE99FEF909373
:1004300096008093950008951092A9001092A8004C
:100440008DE99FEF909396008093950008958FEF2C
:1004500081BB28E833E168E048EC50E005C0CA0100
:100460000197F1F72150304021153105C1F762BBEA
:1004700088E893E1FA013197F1F70197D9F712BAB9
:1004800028E833E1ECCF0E948F0080E060E00E941A
:10049000850080E690E00E94780080E061E00E94A4
:1004A00085008DE690E00E94780080E197E228ECDC
:1004B00030E0F9013197F1F70197D9F708958F925C
:1004C0009F92AF92BF92CF92DF92EF92FF920F93E3
:1004D0001F93CF93DF9312BA0E9443020E948F00B2
:1004E00080E060E00E9485008AE790E00E9478004A
:1004F000F0E28F2EFEE49F2E0AEA10E0E2E9AE2E33
:10050000E0E0BE2E76E8C72E70E0D72E65EEE62E30
:1005100067E0F62E0E94E700EC0180919500909133
:100520009600C817D907B1F3FE01E956FF4FE081E5
:100530008E2F80538A30B0F48091A8009091A9004A
:100540009C0153E0220F331F5A95E1F7880F991F42
:10055000280F391F205330402E0F311D3093A90032
:100560002093A8008091A8009091A90023E0893EE3
:1005700092077CF137E0863E93075CF500D000D00F
:1005800000D0EDB7FEB73196ADB7BEB712961C934B
:100590000E931197D382C2829701281B390B3583A2
:1005A00024830E941C038DB79EB706960FB6F8945D
:1005B0009EBF0FBE8DBF0E948F0080E060E00E9452
:1005C0008500C8010E9478001092A9001092A8002E
:1005D00022C000D000D000D0EDB7FEB73196ADB745
:1005E000BEB712961C930E931197B382A282958385
:1005F00084830E941C032DB73EB72A5F3F4F0FB67E
:10060000F8943EBF0FBE2DBF80E061E00E948500E0
:10061000C8010E947800C4010197F1F7D0939600B9
:10062000C093950077CF0E949F000E9497000E9480
:100630005F0280E090E00895AEE0B0E0E2E2F3E037
:100640000C94CB050D891E8986E08C831A8309835F
:100650008FEF9FE79E838D839E01275E3F4FCE01E4
:1006600001966F89788DA9010E9440032F813885FA
:10067000020F131FF80110822E96E4E00C94E70598
:10068000ABE0B0E0E6E4F3E00C94BD053C012B01E7
:100690005A01FC0117821682838181FD03C06FEF2E
:1006A0007FEFC6C19AE0892E1E010894211C311CDF
:1006B000F3012381F20123FD859123FF81912F0115
:1006C000882309F4B2C1853239F423FD859123FFD3
:1006D00081912F01853229F490E0B3010E94330506
:1006E000E7CF982FFF24EE249924FFE1FF15D0F0E7
:1006F0009B3269F09C3228F4903259F0933291F495
:100700000EC09D3249F0903369F441E024C052E0BC
:10071000F52A84E0F82A28C098E0F92A25C0E0E10B
:10072000FE2A22C0F7FC29C0892F80538A3070F43A
:10073000F6FE05C0989C902C1124980E15C0E89CDC
:10074000E02C1124E80EF0E2FF2A0EC09E3229F4BC
:10075000F6FC6BC140E4F42A07C09C3619F450E85B
:10076000F52A02C0983649F4F20123FD959123FF42
:1007700091912F01992309F0B8CF892F85548330A7
:1007800018F08052833038F444E050E0A40EB51ED7
:100790005FE359830FC0933631F0933779F0933587
:1007A00009F056C020C0F5018081898342E050E005
:1007B000A40EB51E610101E010E012C0F501C08079
:1007C000D180F6FC03C06FEF7FEF02C0692D70E0AF
:1007D00042E050E0A40EB51EC6010E9428058C011F
:1007E0005FE7F52214C0F501C080D180F6FC03C09C
:1007F0006FEF7FEF02C0692D70E042E050E0A40E81
:10080000B51EC6010E941D058C0150E8F52AF3FEB5
:1008100007C01AC080E290E0B3010E943305EA9459
:100820008E2D90E008171907A8F30EC0F601F7FC0B
:100830008591F7FE81916F0190E0B3010E9433052D
:10084000E110EA94015010400115110579F7EAC052
:10085000943611F0993669F5F7FE08C0F50120814C
:1008600031814281538184E090E00AC0F5018081AA
:1008700091819C01442737FD4095542F82E090E000
:10088000A80EB91E9FE6F92257FF09C05095409562
:10089000309521953F4F4F4F5F4FE0E8FE2ACA0148
:1008A000B901A1012AE030E00E945F05D82ED218DC
:1008B00040C0953729F41F2D1F7E2AE030E01DC06F
:1008C0001F2D197F9F3661F0903720F4983509F07D
:1008D000ACC00FC0903739F0983709F0A6C004C0FB
:1008E00028E030E00AC0106114FD146020E130E01F
:1008F00004C014FD166020E132E017FF08C0F501C6
:10090000608171818281938144E050E008C0F501EB
:1009100080819181BC0180E090E042E050E0A40E33
:10092000B51EA1010E945F05D82ED2188FE7F82EC0
:10093000F122F6FE0BC05EEFF522D91438F4F4FE76
:1009400007C0F2FC05C08FEEF82202C01D2D01C0C9
:10095000192DF4FE0DC0FE01ED0DF11D80818033D7
:1009600019F499EEF92208C01F5FF2FE05C003C01A
:100970008F2D867809F01F5F0F2DF3FC14C0F0FE59
:100980000FC01E1510F09D2C0BC09D2C9E0C911AB3
:100990001E2D06C080E290E0B3010E9433051F5F68
:1009A0001E15C0F304C01E1510F4E11A01C0EE2498
:1009B00004FF0FC080E390E0B3010E94330502FF03
:1009C0001DC001FD03C088E790E00EC088E590E0FF
:1009D0000BC0802F867891F001FF02C08BE201C02E
:1009E00080E2F7FC8DE290E0B3010E94330506C07F
:1009F00080E390E0B3010E9433059A94D914C0F3C8
:100A0000DA94F101ED0DF11D808190E0B3010E94B7
:100A10003305DD20A9F706C080E290E0B3010E9413
:100A20003305EA94EE20C1F743CEF3016681778166
:100A3000CB012B96E2E10C94D905FC0105906150A5
:100A400070400110D8F7809590958E0F9F1F0895E4
:100A5000FC016150704001900110D8F7809590958D
:100A60008E0F9F1F08950F931F93CF93DF938C01D9
:100A7000EB018B8181FF1BC082FF0DC02E813F8166
:100A80008C819D812817390764F4E881F9810193ED
:100A9000F983E88306C0E885F985802F0995892BBD
:100AA00031F48E819F8101969F838E8302C00FEF68
:100AB0001FEFC801DF91CF911F910F910895FA01A7
:100AC000AA27283051F1203181F1E8946F936E7F8D
:100AD0006E5F7F4F8F4F9F4FAF4FB1E03ED0B4E07E
:100AE0003CD0670F781F891F9A1FA11D680F791FBF
:100AF0008A1F911DA11D6A0F711D811D911DA11DD0
:100B000020D009F468943F912AE0269F11243019DF
:100B1000305D3193DEF6CF010895462F4770405D7A
:100B20004193B3E00FD0C9F7F6CF462F4F70405D29
:100B30004A3318F0495D31FD4052419302D0A9F784
:100B4000EACFB4E0A6959795879577956795BA957E
:100B5000C9F700976105710508959B01AC010A2E44
:100B600006945795479537952795BA95C9F7620F1B
:100B7000731F841F951FA01D08952F923F924F92BF
:100B80005F926F927F928F929F92AF92BF92CF921D
:100B9000DF92EF92FF920F931F93CF93DF93CDB726
:100BA000DEB7CA1BDB0B0FB6F894DEBF0FBECDBF9E
:100BB00009942A88398848885F846E847D848C846F
:100BC0009B84AA84B984C884DF80EE80FD800C8178
:100BD0001B81AA81B981CE0FD11D0FB6F894DEBF5B
:0C0BE0000FBECDBFED010895F894FFCFCB
:100BEC0050726F6772616D206C616231004F626C84
:100BFC0069637A61207769656B00506F64616A2064
:100C0C007769656B3A004D61737A202564206C61BD
:100C1C0074002564009DFF3738392D3435362B315F
:080C2C003233432A30233D005E
:00000001FF
