:100000000C942A000C9447000C9447000C94470071
:100010000C9447000C9447000C9447000C94B805CE
:100020000C9447000C9447000C9447000C94470034
:100030000C9447000C9447000C9447000C94470024
:100040000C9447000C9447000C9447000C94470014
:100050000C94470011241FBECFE5D8E0DEBFCDBF12
:1000600012E0A0E6B0E0EAEBFDE102C005900D92DF
:10007000A834B107D9F712E0A8E4B2E001C01D929C
:10008000AC34B107E1F70E947D0B0C94DB0E0C94AD
:100090000000A0E2B0E0EFE4F0E00C94F10B698323
:1000A0007A838B839C832D833E834F835887CE0135
:1000B0000196BE01675F7F4F0E94C503CE01059682
:1000C000BE016F5E7F4F0E94C5039985923088F014
:1000D00089898230C8F0943019F4823051F404C018
:1000E000843029F4923081F485E391E0C6C09230E7
:1000F00049F420E09A858A89981321E02A87CE0165
:100100000996BBC0823049F420E09A858A89981309
:1001100021E02A8BCE014196B0C02D843E844F84CD
:1001200058886D887E888F88988CEE24FF248701FC
:10013000AA24BB24650140E050E060E070E0E0E00C
:10014000F0E0C10181709070892BE9F0E60CF71C9A
:10015000081D191D9A01AB012A0D3B1D4C1D5D1D8B
:1001600080E090E0A0E0B0E0E614F704080519058F
:1001700020F481E090E0A0E0B0E0BA01A901480FCE
:10018000591F6A1F7B1FAA0CBB1CCC1CDD1C97FED1
:1001900008C081E090E0A0E0B0E0A82AB92ACA2A0D
:1001A000DB2A3196E032F10549F0660C771C881C99
:1001B000991C5694479437942794C3CFFA85EA89BB
:1001C0002B893C898B859C85280F391F2E5F3F4FDB
:1001D00017C0CA0181709070892B61F01695079540
:1001E000F794E79480E090E0A0E0B0E8E82AF92AEC
:1001F0000A2B1B2B76956795579547952F5F3F4F99
:1002000077FDE7CF0CC0440F551F661F771F17FD02
:100210004160EE0CFF1C001F111F21503040403088
:1002200090E0590790E0690790E4790760F32B8F1D
:100230003C8FDB01CA018F779070A070B070803462
:100240009105A105B10561F447FD0AC0E114F1046F
:100250000105110529F0405C5F4F6F4F7F4F4078DB
:100260001A8EFE1711F081E08A8F4D8F5E8F6F8F8F
:1002700078A383E0898FCE0149960E94F002A09670
:10028000E2E10C940D0CA8E1B0E0E9E4F1E00C949B
:10029000F90B69837A838B839C832D833E834F8301
:1002A0005887B9E0EB2EF12CEC0EFD1ECE01019625
:1002B000B7010E94C5038E010F5E1F4FCE01059648
:1002C000B8010E94C5032985223008F47EC039890F
:1002D000323010F4B8017CC08A859A8989278A87D0
:1002E000243011F0223031F4231709F06EC065E399
:1002F00071E06EC0343039F41D861E861F86188A60
:100300001C861B8604C0323021F484E08987B70143
:100310005FC02B853C858B899C89281B390B3C87CA
:100320002B87ED84FE840F851889AD88BE88CF8821
:10033000D88CEA14FB040C051D0540F4EE0CFF1CE0
:10034000001F111F215030403C872B8720E030E0F8
:1003500040E050E080E090E0A0E0B0E460E070E0D9
:10036000EA14FB040C051D0540F0282B392B4A2B01
:100370005B2BEA18FB080C091D09B695A795979504
:100380008795EE0CFF1C001F111F6F5F7F4F6F31B1
:10039000710531F7DA01C9018F779070A070B070E4
:1003A00080349105A105B10561F427FD0AC0E1146F
:1003B000F1040105110529F0205C3F4F4F4F5F4FBD
:1003C00020782D873E874F87588BBE01675F7F4F10
:1003D000CB010E94F0026896EAE00C94150CA8E0AC
:1003E000B0E0E5EFF1E00C94FA0B9B01AC0183E087
:1003F0008983DA01C9018827B7FD83959927AA2740
:10040000BB27B82E211531054105510519F482E0AD
:1004100089833AC08823A9F0203080E0380780E043
:10042000480780E8580729F460E070E080E09FEC1E
:1004300030C0EE24FF248701E21AF30A040B150BE7
:1004400002C079018A018EE1C82ED12CDC82CB82D8
:10045000ED82FE820F831887C801B7010E94A102B6
:1004600001971816190684F4082E04C0EE0CFF1C20
:10047000001F111F0A94D2F7ED82FE820F831887A6
:10048000C81AD90ADC82CB82BA82CE0101960E94B8
:10049000F0022896E9E00C94160CACE0B0E0E3E53D
:1004A000F2E00C94010C69837A838B839C83CE01E8
:1004B0000196BE016B5F7F4F0E94C5038D81823024
:1004C00061F1823050F1843021F48E81882351F122
:1004D0002EC02F81388537FD20C06E812F31310528
:1004E0001CF06623F9F023C08EE190E0821B930B91
:1004F00029853A854B855C8504C056954795379587
:1005000027958A95D2F76623B1F05095409530959E
:1005100021953F4F4F4F5F4F0EC020E030E040E04D
:1005200050E009C02FEF3FEF4FEF5FE704C020E03E
:1005300030E040E050E8B901CA012C96E2E00C94AA
:100540001D0CEF92FF920F931F937B018C0180E0B3
:10055000E81680E0F80681E0080780E0180788F4D4
:100560008FEFE816F1040105110531F028F088E05D
:1005700090E0A0E0B0E017C080E090E0A0E0B0E044
:1005800012C080E0E81680E0F80680E0080781E00D
:10059000180728F088E190E0A0E0B0E004C080E116
:1005A00090E0A0E0B0E020E230E040E050E0281B26
:1005B000390B4A0B5B0B04C016950795F794E7942B
:1005C0008A95D2F7F701E35CFE4F8081281B310941
:1005D00041095109C9011F910F91FF90EF900895B2
:1005E000DF92EF92FF920F931F93FC01E480F5805E
:1005F00006811781D1808081823048F480E090E0CC
:10060000A0E1B0E0E82AF92A0A2B1B2BA5C0843010
:1006100009F49FC0823021F4EE24FF24870105C035
:10062000E114F1040105110519F4E0E0F0E096C0D1
:10063000628173819FEF623879070CF05BC022E81A
:100640003FEF261B370B2A3131052CF020E030E03C
:1006500040E050E02AC0B801A701022E04C0769500
:100660006795579547950A94D2F781E090E0A0E00E
:10067000B0E004C0880F991FAA1FBB1F2A95D2F7AC
:100680000197A109B1098E219F21A023B1230097D1
:10069000A105B10521F081E090E0A0E0B0E09A0171
:1006A000AB01282B392B4A2B5B2BDA01C9018F7741
:1006B0009070A070B07080349105A105B10539F437
:1006C00027FF09C0205C3F4F4F4F5F4F04C0215CA4
:1006D0003F4F4F4F5F4FE0E0F0E02030A0E03A079F
:1006E000A0E04A07A0E45A0710F0E1E0F0E0790149
:1006F0008A0127C06038710564F5FB01E158FF4F9E
:10070000D801C7018F779070A070B07080349105C8
:10071000A105B10539F4E7FE0DC080E490E0A0E04A
:10072000B0E004C08FE390E0A0E0B0E0E80EF91E76
:100730000A1F1B1F17FF05C016950795F794E7942E
:10074000319687E016950795F794E7948A95D1F747
:1007500005C0EE24FF248701EFEFF0E06E2F6795D0
:1007600066276795902F9F77D794DD24D7948E2F97
:100770008695492F462B582F5D29B701CA011F9135
:100780000F91FF90EF90DF900895FC01DB01408115
:1007900051812281622F6F7770E0221F2227221F52
:1007A0009381892F880F822B282F30E0991F99275A
:1007B000991F11969C93119721153105A9F54115A3
:1007C00051056105710511F482E037C082E89FEFA1
:1007D00013969C938E9312979A01AB0167E0220FB8
:1007E000331F441F551F6A95D1F783E08C930DC0CA
:1007F000220F331F441F551F12968D919C91139702
:10080000019713969C938E931297203080E03807BF
:1008100080E0480780E4580758F314962D933D93E1
:100820004D935C93179708952F3F310579F4411547
:1008300051056105710519F484E08C93089564FFF6
:1008400003C081E08C9312C01C9210C02F5730401F
:1008500013963C932E93129783E08C9387E0440F7A
:10086000551F661F771F8A95D1F7706414964D93B4
:100870005D936D937C931797089580FF02C0C29A91
:1008800001C0C29881FF02C0C39A01C0C39882FF11
:1008900002C0C49A01C0C49883FF02C0C59A0895DB
:1008A000C59808951F93182FC19A82958F700E9442
:1008B0003D04C198C19A812F0E943D04C19885E8EA
:1008C0008A95F1F71F910895C0980E9452040895E7
:1008D000C09A0E9452040895CF93DF93EC0103C0A5
:1008E00021960E94680488818823D1F7DF91CF91F7
:1008F00008956295660F660F607C680F862F80688A
:100900000E946404089581E00E94640480EA9FE0EC
:100910000197F1F7089582E00E94640480EA9FE065
:100920000197F1F708951F93CF93DF93BA9ABB9A7B
:10093000BC9ABD9AB99AB89A80E395E70197F1F706
:10094000C098C19810E0C0E1D7E2C19A83E00E944C
:100950003D04C198CE010197F1F71F5F1330A9F74D
:10096000C19A82E00E943D04C19880ED97E0019712
:10097000F1F788E20E94640488E00E94640481E048
:100980000E94640480EA9FE00197F1F786E00E94EC
:1009900064048CE00E946404DF91CF911F9108955C
:1009A0003E9A3F98309A319A329A379A38983998C5
:1009B0003A983B980895369A3699FECF24B135B1CE
:1009C000C9010895369A3699FECF64B175B188276A
:1009D00077FD8095982F0E94EF0120E030E040EAFB
:1009E00050E40E94490020E030E048EC52E40E94CC
:1009F000490020E030E84FE754E40E9443010E94A0
:100A00004D02CB010895FC0182309105BCF022E03B
:100A100030E008C0CF01B9010E94CA0B892B71F0E8
:100A20002F5F3F4F229FC001239F900D329F900D5B
:100A30001124E817F90774F781E0089580E008951C
:100A40008333910514F082E390E09C0197FF02C08C
:100A500020E030E0C90108959C0180FD06C0949A11
:100A6000959880E29EE40197F1F7C90162E070E099
:100A70000E94CA0B019731F49498959A80E29EE403
:100A80000197F1F7C9010E940305882311F0969A96
:100A900001C0969880E29EE40197F1F780E090E033
:100AA00008959C018A30910510F02AE030E0C901D8
:100AB0000895FC018A30910510F0EAE0F0E0E35C73
:100AC000FD4F808185BB80E090E008958EB5886001
:100AD0008EBD8EB584608EBD85E39CE09BBD8ABDD6
:100AE00089B7806189BF0895CF93DF93FC01EB0143
:100AF00080914802909149026AE070E00E94CA0B1E
:100B0000798368836C3371058CF0808191810196C3
:100B100091838083198218821092490210924802B0
:100B200080819181CC9714F01182108280E090E056
:100B3000DF91CF910895FC01DB01809148029091F3
:100B4000490211969C938E930A977CF01D921C92F9
:100B500010924902109248028081918101969183FE
:100B60008083CC9714F01182108280E090E0089589
:100B70001F920F920FB60F9211245F936F937F9382
:100B80008F939F93AF93BF9380914A0290914B02B2
:100B900062E070E00E94CA0B019749F4809148021C
:100BA0009091490201969093490280934802BF9127
:100BB000AF919F918F917F916F915F910F900FBE39
:100BC0000F901F9018950F931F93CF93DF93EC0115
:100BD0008B0164E670E00E94CA0B9C018B3091058A
:100BE000A4F08DB79EB708970FB6F8949EBF0FBEBE
:100BF0008DBFEDB7FEB73196ADB7BEB712961C9359
:100C00000E93119780E690E011C0ADB7BEB718976C
:100C10000FB6F894BEBF0FBEADBFEDB7FEB73196AD
:100C200012961C930E9311978FE690E09383828324
:100C3000CE0164E670E00E94CA0B7583648337833B
:100C400026830E943A0C8DB79EB708960FB6F8948B
:100C50009EBF0FBE8DBF80E090E0DF91CF911F91CE
:100C60000F9108956F927F928F929F92AF92BF9251
:100C7000CF92DF92EF92FF920F931F93DF93CF9368
:100C8000CDB7DEB7A8970FB6F894DEBF0FBECDBFC5
:100C900015BA0E94D0045E010894A11CB11C2FE774
:100CA000622E20E0722E95E1C92ED12CCC0EDD1ED5
:100CB00088EC882E912C3DC0369A3699FECF04B12F
:100CC00015B10E94E2047C0100D000D000D0EDB745
:100CD000FEB73196ADB7BEB71296BC92AE921197E1
:100CE00073826282158304830E943A0C8DB79EB78B
:100CF00006960FB6F8949EBF0FBE8DBFC701B60112
:100D00000E94E3050E94830480E060E00E94790471
:100D1000C5010E946C0480E061E00E947904C60174
:100D20000E946C0488EE93E0F4013197F1F701978B
:100D3000D9F78299C1CFA8960FB6F894DEBF0FBE3F
:100D4000CDBFCF91DF911F910F91FF90EF90DF907A
:100D5000CF90BF90AF909F908F907F906F900895AD
:100D60002F923F924F925F926F927F928F929F92BB
:100D7000AF92BF92CF92DF92EF92FF920F931F93A9
:100D8000DF93CF93CDB7DEB7A2970FB6F894DEBF4F
:100D90000FBECDBF949895989698109249021092E4
:100DA000480281E090E090934B0280934A021A82BD
:100DB00019821C821B82EE24FF24EAE0AE2EB12CA5
:100DC000AC0EBD1E70E9472E70E0572E6CE8662E03
:100DD00060E0762E55E0C52ED12CCC0EDD1E4FE006
:100DE000842E912C8C0E9D1E38EC232E312C9FC00E
:100DF000CE010396BE016F5F7F4F0E9474058B8109
:100E00009C818A3091057CF400D000D000D0EDB7F1
:100E1000FEB73196ADB7BEB71296BC92AE9211979F
:100E2000738262820EC000D000D000D0EDB7FEB752
:100E30003196ADB7BEB71296BC92AE92119753825F
:100E40004282958384830E943A0C8DB79EB70696A2
:100E50000FB6F8949EBF0FBE8DBF89819A818A30EC
:100E600091057CF400D000D000D0EDB7FEB73196EC
:100E7000ADB7BEB71296DC92CE92119773826282A2
:100E80000EC000D000D000D0EDB7FEB73196ADB7A0
:100E9000BEB71296DC92CE9211975382428295830E
:100EA00084830E943A0C8DB79EB706960FB6F894CD
:100EB0009EBF0FBE8DBF09811A81E016F1062CF08E
:100EC0000115110511F087012AC0ADB7BEB71897FB
:100ED0000FB6F894BEBF0FBEADBFEDB7FEB73196EB
:100EE00012969C928E92119783E990E0938382836D
:100EF000B582A482D782C6820E943A0CADB7BEB733
:100F000018960FB6F894BEBF0FBEADBF0E94830403
:100F100080E060E00E947904C4010E946C0488EEC5
:100F200093E0F1013197F1F70197D9F778018299B0
:100F30005FCFA2960FB6F894DEBF0FBECDBFCF91A4
:100F4000DF911F910F91FF90EF90DF90CF90BF90B6
:100F5000AF909F908F907F906F905F904F903F9059
:100F60002F9008952F923F924F925F926F927F92AF
:100F70008F929F92AF92BF92CF92DF92EF92FF92A9
:100F80000F931F93DF93CF93CDB7DEB7A2970FB622
:100F9000F894DEBF0FBECDBF9498959896981092A6
:100FA00049021092480210924B0210924A021A8291
:100FB00019821C821B82CC24DD248AE0882E912C8D
:100FC0008C0E9D1E05E0E02EF12CEC0EFD1E1CE8A3
:100FD000212E10E0312EBFE0AB2EB12CAC0EBD1E89
:100FE000A3E94A2EA0E05A2EF0E16F2EF7E27F2E01
:100FF000C1C0CE010396BE016F5F7F4F0E949B056B
:101000000FC080ED97E00197F1F7839BFACF8091B5
:101010004A0290914B02019690934B0280934A02B0
:10102000839BF3CF00D000D000D0EDB7FEB7319650
:10103000ADB7BEB712969C928E92119729E930E017
:101040003383228389819A81958384830E943A0C19
:101050008B819C81ADB7BEB716960FB6F894BEBF14
:101060000FBEADBF8A309105E4F400D000D000D0AF
:10107000EDB7FEB73196ADB7BEB71296FC92EE92C1
:10108000119733822282958384830E943A0C2DB774
:101090003EB72A5F3F4F0FB6F8943EBF0FBE2DBF3D
:1010A0001CC000D000D000D0EDB7FEB73196ADB770
:1010B000BEB71296FC92EE92119720E930E033838E
:1010C0002283958384830E943A0C8DB79EB706963F
:1010D0000FB6F8949EBF0FBE8DBF80914A029091CB
:1010E0004B0262E070E00E94CA0B019771F480919C
:1010F0004802909149026AE070E00E94CA0B892B75
:1011000021F482B390E1892782BB09811A81C0163C
:10111000D1061CF00115110551F5ADB7BEB71897F2
:101120000FB6F894BEBF0FBEADBFEDB7FEB7319698
:101130001296BC92AE92119753824282F582E4825B
:10114000978286820E943A0C2DB73EB7285F3F4FA8
:101150000FB6F8943EBF0FBE2DBF0E94830480E0FF
:1011600060E00E947904C5010E946C046801C3011B
:101170000197F1F782993DCFA2960FB6F894DEBFA2
:101180000FBECDBFCF91DF911F910F91FF90EF90D8
:10119000DF90CF90BF90AF909F908F907F906F9097
:1011A0005F904F903F902F900895DF93CF93CDB7EE
:1011B000DEB764970FB6F894DEBF0FBECDBF9C01BB
:1011C0008333910514F022E330E000D000D000D04A
:1011D000EDB7FEB73196CE010196ADB7BEB7129608
:1011E0009C938E93119780E990E093838283C90149
:1011F00037FF02C080E090E0958384830E943A0C20
:101200008DB79EB706960FB6F8949EBF0FBE8DBFE2
:101210000E94830480E060E00E947904CE01019680
:101220000E946C0480E090E064960FB6F894DEBFF4
:101230000FBECDBFCF91DF9108950F931F93CF9332
:10124000DF93C0E0D0E000E21EE431C097980DC00B
:10125000C8010197F1F7809BFBCF979AC8010197CE
:10126000F1F7C233D1050CF42196809BF4CF0CC06A
:10127000C8010197F1F7819BFBCF979AC8010197AD
:10128000F1F7209709F02197819BF5CFCE010E94BD
:10129000D508CA30D10518F0EAE0F0E001C0FE013F
:1012A000E35CFD4F808185BBCE010E942C058299B5
:1012B000CDCF15BADF91CF911F910F910895DF9394
:1012C000CF93CDB7DEB7A8970FB6F894DEBF0FBEA9
:1012D000CDBFDE011196EDE9F0E081E101900D92C4
:1012E0008150E1F7FE01729683E0DF011D928A953D
:1012F000E9F7DE015596E1EBF0E08EE001900D920A
:101300008150E1F7FE01B39686E0DF011D928A95D8
:10131000E9F70E94830480E060E00E947904CE0136
:1013200001960E946C0480E061E00E947904CE0185
:1013300045960E946C0480E49CE928EC30E0F901B9
:101340003197F1F70197D9F7A8960FB6F894DEBF59
:101350000FBECDBFCF91DF910895CF93DF93EC0106
:10136000009719F40E945F0912C08130910519F4A9
:101370000E941D0910C08230910519F40E94B20725
:101380000AC08330910519F40E94B00604C0249766
:1013900011F40E943206DF91CF9108952F923F926F
:1013A0004F925F926F927F928F929F92AF92BF9275
:1013B000CF92DF92EF92FF920F931F93DF93CF9321
:1013C000CDB7DEB7CC58D0400FB6F894DEBF0FBE15
:1013D000CDBF0E948304FE01B99684E6DF011D9211
:1013E0008A95E9F7ACECB0E08BE00D90019281506A
:1013F000E1F7FE01F49689E0DF011D928A95E9F795
:10140000DE01DD96E0EEF0E08BE001900D92815080
:10141000E1F789E0FE01E85BFF4FDF011D928A954D
:10142000E9F7FE01EF5AFF4F9F0144EF50E08BE0D8
:10143000DA010D90AD01D9010D929D018150C1F7E6
:101440003B9689E0DF011D928A95E9F7FE01EB5991
:10145000FF4F9F0148E051E08BE0DA010D90AD01B4
:10146000D9010D929D018150C1F73B9689E0DF01C2
:101470001D928A95E9F7FE01E758FF4F9F014CE165
:1014800051E08BE0DA010D90AD01D9010D929D0183
:101490008150C1F73B9689E0DF011D928A95E9F7FB
:1014A0000E94830480E060E00E94790479E2672E64
:1014B000712C6C0E7D1E00D000D000D0EDB7FEB7B1
:1014C00031968E010F5F1F4FADB7BEB712961C93BA
:1014D0000E93119785EC90E09383828375826482EA
:1014E0000E943A0C8DB79EB706960FB6F8949EBF31
:1014F0000FBE8DBFC8010E946C0480E061E00E94B5
:1015000079048E010B5E1F4FC801BE01635C7F4FE3
:101510000E94330CC8010E946C0488EE93E028EC12
:1015200030E0F9013197F1F70197D9F7EE24FF2464
:1015300064E1862E912C5E010894A11CB11C55E13A
:10154000C52ED12CCC0EDD1E45EC242E40E0342ED1
:1015500038EC432E512CB4C094E0E916F10424F089
:1015600023E0E22EF12C4BC00894E11CF11C819B7E
:10157000FECF0E94830480E060E00E947904E89C32
:101580008001E99C100DF89C100D1124B8016451E4
:101590007040A9E2B0E0AC0FBD1F6A0F7B1FC50110
:1015A0000E94330CC5010E946C0480E061E00E943F
:1015B000790400D000D000D0EDB7FEB73196ADB7BA
:1015C000BEB71296DC92CE92119733822282060D1C
:1015D000171D158304830E943A0C8DB79EB706969B
:1015E0000FB6F8949EBF0FBE8DBFC6010E946C045B
:1015F00088EE93E0F2013197F1F70197D9F7819BDB
:10160000ABCF5CC0E114F10421F491E0E92EF12CA0
:1016100055C00894E108F108819BFECF0E94830425
:1016200080E060E00E94790400D000D000D0EDB7E7
:10163000FEB73196ADB7BEB71296BC92AE92119777
:1016400033822282E89CC001E99C900DF89C900DA9
:101650001124860D971D958384830E943A0C8DB7C3
:101660009EB706960FB6F8949EBF0FBE8DBFC501FC
:101670000E946C0480E061E00E9479040894E11CFF
:10168000F11CE89CB001E99C700DF89C700D1124D0
:101690000894E108F108A9E2B0E0AC0FBD1F6A0FA1
:1016A0007B1FC6010E94330CC6010E946C0488EEA9
:1016B00093E0F2013197F1F70197D9F7809BA2CF20
:1016C00083999DCFC701C457DF4F0FB6F894DEBF93
:1016D0000FBECDBFCF91DF911F910F91FF90EF9083
:1016E000DF90CF90BF90AF909F908F907F906F9042
:1016F0005F904F903F902F9008950E9466057894D8
:101700000E9493040E948B048FEF84BB81BB889856
:1017100089988A988B98909A919A929A939A0E9413
:101720005F090E9483040E94CE0997980E94AD0928
:101730009798969895989498F6CFEF92FF920F937A
:101740001F93CF93DF93F82EE92EE82FF92FDF01B7
:101750000D900020E9F700E010E0EF01CA1BDB0B61
:101760002D9608C08F2D9E2D60E270E00E94280CFF
:101770000F5F1F4F0C171D07A8F38F2D9E2D60E3E1
:1017800071E00E94280CDF91CF911F910F91FF9083
:10179000EF90089597FB092E07260AD077FD04D015
:1017A0000CD006D000201AF4709561957F4F0895F3
:1017B000F6F7909581959F4F0895AA1BBB1B51E1A9
:1017C00007C0AA1FBB1FA617B70710F0A61BB70BB1
:1017D000881F991F5A95A9F780959095BC01CD0156
:1017E00008952F923F924F925F926F927F928F92C5
:1017F0009F92AF92BF92CF92DF92EF92FF920F93A0
:101800001F93CF93DF93CDB7DEB7CA1BDB0B0FB6A9
:10181000F894DEBF0FBECDBF09942A883988488866
:101820005F846E847D848C849B84AA84B984C884FC
:10183000DF80EE80FD800C811B81AA81B981CE0FF3
:10184000D11D0FB6F894DEBF0FBECDBFED010895D8
:10185000FB01DC010D900020E9F7119701900D923A
:101860000020E1F70895FB01DC0101900D920020BA
:10187000E1F70895AEE0B0E0E0E4FCE00C94FF0B8B
:101880000D891E8986E08C831A8309838FEF9FE779
:101890009E838D839E01275E3F4FCE0101966F8907
:1018A000788DA9010E945E0C2F813885020F131FCD
:1018B000F80110822E96E4E00C941B0CABE0B0E033
:1018C000E4E6FCE00C94F10B3C012B015A01FC0115
:1018D00017821682838181FD03C06FEF7FEFC6C13F
:1018E0009AE0892E1E010894211C311CF3012381EA
:1018F000F20123FD859123FF81912F01882309F4B3
:10190000B2C1853239F423FD859123FF81912F01E6
:10191000853229F490E0B3010E94510EE7CF982F51
:10192000FF24EE249924FFE1FF15D0F09B3269F0EB
:101930009C3228F4903259F0933291F40EC09D32CB
:1019400049F0903369F441E024C052E0F52A84E084
:10195000F82A28C098E0F92A25C0E0E1FE2A22C032
:10196000F7FC29C0892F80538A3070F4F6FE05C039
:10197000989C902C1124980E15C0E89CE02C112402
:10198000E80EF0E2FF2A0EC09E3229F4F6FC6BC18D
:1019900040E4F42A07C09C3619F450E8F52A02C046
:1019A000983649F4F20123FD959123FF91912F017F
:1019B000992309F0B8CF892F8554833018F08052CD
:1019C000833038F444E050E0A40EB51E5FE3598341
:1019D0000FC0933631F0933779F0933509F056C044
:1019E00020C0F5018081898342E050E0A40EB51E3D
:1019F000610101E010E012C0F501C080D180F6FC69
:101A000003C06FEF7FEF02C0692D70E042E050E04D
:101A1000A40EB51EC6010E94460E8C015FE7F5229A
:101A200014C0F501C080D180F6FC03C06FEF7FEFDA
:101A300002C0692D70E042E050E0A40EB51EC60160
:101A40000E943B0E8C0150E8F52AF3FE07C01AC035
:101A500080E290E0B3010E94510EEA948E2D90E056
:101A600008171907A8F30EC0F601F7FC8591F7FED9
:101A700081916F0190E0B3010E94510EE110EA9450
:101A8000015010400115110579F7EAC0943611F0A4
:101A9000993669F5F7FE08C0F50120813181428150
:101AA000538184E090E00AC0F501808191819C011E
:101AB000442737FD4095542F82E090E0A80EB91ED0
:101AC0009FE6F92257FF09C0509540953095219522
:101AD0003F4F4F4F5F4FE0E8FE2ACA01B901A10115
:101AE0002AE030E00E947D0ED82ED21840C09537F3
:101AF00029F41F2D1F7E2AE030E01DC01F2D197F05
:101B00009F3661F0903720F4983509F0ACC00FC0D3
:101B1000903739F0983709F0A6C004C028E030E0CB
:101B20000AC0106114FD146020E130E004C014FD0F
:101B3000166020E132E017FF08C0F5016081718175
:101B40008281938144E050E008C0F5018081918159
:101B5000BC0180E090E042E050E0A40EB51EA1017F
:101B60000E947D0ED82ED2188FE7F82EF122F6FEB5
:101B70000BC05EEFF522D91438F4F4FE07C0F2FC76
:101B800005C08FEEF82202C01D2D01C0192DF4FEF4
:101B90000DC0FE01ED0DF11D8081803319F499EE29
:101BA000F92208C01F5FF2FE05C003C08F2D8678A2
:101BB00009F01F5F0F2DF3FC14C0F0FE0FC01E15BF
:101BC00010F09D2C0BC09D2C9E0C911A1E2D06C052
:101BD00080E290E0B3010E94510E1F5F1E15C0F31A
:101BE00004C01E1510F4E11A01C0EE2404FF0FC05A
:101BF00080E390E0B3010E94510E02FF1DC001FD81
:101C000003C088E790E00EC088E590E00BC0802F0D
:101C1000867891F001FF02C08BE201C080E2F7FC00
:101C20008DE290E0B3010E94510E06C080E390E087
:101C3000B3010E94510E9A94D914C0F3DA94F101C1
:101C4000ED0DF11D808190E0B3010E94510EDD2069
:101C5000A9F706C080E290E0B3010E94510EEA9419
:101C6000EE20C1F743CEF30166817781CB012B963D
:101C7000E2E10C940D0CFC010590615070400110E4
:101C8000D8F7809590958E0F9F1F0895FC016150A5
:101C9000704001900110D8F7809590958E0F9F1F8E
:101CA00008950F931F93CF93DF938C01EB018B81EA
:101CB00081FF1BC082FF0DC02E813F818C819D81E1
:101CC0002817390764F4E881F9810193F983E883DF
:101CD00006C0E885F985802F0995892B31F48E811E
:101CE0009F8101969F838E8302C00FEF1FEFC80173
:101CF000DF91CF911F910F910895FA01AA27283003
:101D000051F1203181F1E8946F936E7F6E5F7F4FC8
:101D10008F4F9F4FAF4FB1E03ED0B4E03CD0670F44
:101D2000781F891F9A1FA11D680F791F8A1F911D97
:101D3000A11D6A0F711D811D911DA11D20D009F4E7
:101D400068943F912AE0269F11243019305D319329
:101D5000DEF6CF010895462F4770405D4193B3E012
:101D60000FD0C9F7F6CF462F4F70405D4A3318F0B9
:101D7000495D31FD4052419302D0A9F7EACFB4E06A
:101D8000A6959795879577956795BA95C9F7009722
:101D90006105710508959B01AC010A2E06945795C3
:101DA000479537952795BA95C9F7620F731F841F1A
:0A1DB000951FA01D0895F894FFCFC1
:101DBA00506F6D696172313A25642E256456005060
:101DCA006F6D696172313A25642E30256456006C54
:101DDA0069746572616C203D2025640030256400B9
:101DEA0025640025733A2573002564300050726F0C
:101DFA006772616D2050544D20323032310000003C
:101E0A000032353238373120323532383339000032
:101E1A00000000000025732020205800312E2049A0
:101E2A006E666F2020200000000000000000000005
:101E3A00322E204C69637A6279200000000000008B
:101E4A0000000000332E2053746F7065722000006A
:101E5A000000000000000000342E205A65676172FD
:101E6A00202000000000000000000000352E204D58
:101E7A006965726E696B00000000000000000000D6
:101E8A0020200958000000000000000000000102A4
:101E9A0002030303030404040404040404050505FB
:101EAA0005050505050505050505050505060606D5
:101EBA0006060606060606060606060606060606B8
:101ECA0006060606060606060606060606070707A5
:101EDA000707070707070707070707070707070788
:101EEA000707070707070707070707070707070778
:101EFA000707070707070707070707070707070768
:101F0A000707070707070707070707070708080854
:101F1A000808080808080808080808080808080837
:101F2A000808080808080808080808080808080827
:101F3A000808080808080808080808080808080817
:101F4A000808080808080808080808080808080807
:101F5A0008080808080808080808080808080808F7
:101F6A0008080808080808080808080808080808E7
:101F7A0008080808080808080808080808080808D7
:101F8A0008080808080808080808080808FC60DAA9
:081F9A00F266B6BEE0FEF6029D
:00000001FF
