:100000000C942A000C9447000C9447000C94470071
:100010000C9447000C9447000C9447000C94470044
:100020000C9447000C9447000C9447000C94470034
:100030000C9447000C9447000C9447000C94470024
:100040000C9447000C9447000C9447000C94470014
:100050000C94470011241FBECFE5D8E0DEBFCDBF12
:1000600010E0A0E6B0E0ECE5FEE002C005900D92E5
:10007000A43BB107D9F710E0A4EBB0E001C01D929A
:10008000AA3CB107E1F70E94EC030C942C070C94F6
:10009000000080FF02C0C29A01C0C29881FF02C066
:1000A000C39A01C0C39882FF02C0C49A01C0C49819
:1000B00083FF02C0C59A0895C59808951F93182F0D
:1000C000C19A82958F700E944900C198C19A812F70
:1000D0000E944900C19885E88A95F1F71F9108951B
:1000E000C0980E945E000895C09A0E945E00089524
:1000F000CF93DF93EC0103C021960E9474008881A6
:100100008823D1F7DF91CF9108956295660F660F2E
:10011000607C680F862F80680E947000089581E0DF
:100120000E94700080EA9FE00197F1F7089582E055
:100130000E94700080EA9FE00197F1F708951F93F5
:10014000CF93DF93BA9ABB9ABC9ABD9AB99AB89AE0
:1001500080E395E70197F1F7C098C19810E0C0E1FE
:10016000D7E2C19A83E00E944900C198CE0101976D
:10017000F1F71F5F1330A9F7C19A82E00E9449008E
:10018000C19880ED97E00197F1F788E20E94700036
:1001900088E00E94700081E00E94700080EA9FE089
:1001A0000197F1F786E00E9470008CE00E947000D9
:1001B000DF91CF911F9108951092BB001092BA0069
:1001C0001092B5001092B4001092B7001092B600D1
:1001D0001092B9001092B8008DE99FEF9093A200A1
:1001E0008093A10008958091BC009091BD0001967C
:1001F0009093BD008093BC00CC9714F18091BE0019
:100200009091BF0001969093BF008093BE00109222
:10021000BD001092BC00CC979CF08091C0009091E2
:10022000C10001969093C1008093C0001092BF005E
:100230001092BE00489724F01092C1001092C000A6
:1002400008954FEF5FEF60E070E020E030E0A1E064
:10025000B0E0E0E2FEE4CD01062E02C0880F991F57
:100260000A94E2F782BBCF010197F1F78499A901C3
:10027000859B03C0A9014F5F5F4F869B03C0A90107
:100280004E5F5F4F879B03C0A9014D5F5F4F6F5F5C
:100290007F4F2C5F3F4F64307105E9F6CA01089526
:1002A000AC018091B8009091B900892BC9F42091DC
:1002B000B4003091B50083E0283E38074CF5C90101
:1002C000F3E0880F991FFA95E1F7220F331F820F91
:1002D000931F840F951F9093B5008093B4000895E9
:1002E0002091B6003091B70083E0283E380784F4AF
:1002F000C90173E0880F991F7A95E1F7220F331F28
:10030000820F931F840F951F9093B7008093B600C0
:10031000089597FD85C08730910509F453C0883052
:100320009105B4F48330910509F449C084309105F6
:100330004CF48130910531F18230910534F5892BEF
:10034000F1F008958530910531F106973CF520C014
:100350008B30910509F444C08C30910534F4893018
:10036000910511F10A971CF51CC08D30910511F112
:100370008D30910554F10F9709F052C048C087E0C5
:1003800090E01AC088E090E017C089E090E014C0C7
:1003900084E090E011C085E090E00EC086E090E03F
:1003A0000BC081E090E008C082E090E005C083E0EF
:1003B00090E002C080E090E00E945001089581E04A
:1003C00090E005C082E090E002C083E090E090936E
:1003D000B9008093B8001092BB001092BA00089543
:1003E0001092BB001092BA001092B5001092B400A7
:1003F0001092B7001092B6001092B9001092B80097
:100400008DE99FEF9093A2008093A10008958091C1
:10041000BA009091BB0001969093BB008093BA0004
:1004200008958091B8009091B9008130910561F0F4
:10043000823091051CF4892B49F00EC08230910561
:1004400039F0039749F406C08DE2089580E20895DB
:100450008BE208958AE208958FE308958091BA00AF
:100460009091BB008130910521F0029709F05BC0AB
:1004700044C08091B8009091B9008130910559F441
:100480008091B4009091B5002091B6003091B700F2
:10049000821B930B0DC08230910579F48091B400DA
:1004A0009091B5002091B6003091B700820F931F54
:1004B0009093B5008093B40017C00397A9F42091DE
:1004C000B6003091B7008091B4009091B500289F9C
:1004D000A001299F500D389F500D112457FD04C0D5
:1004E0005093B5004093B4001092B7001092B6003C
:1004F0001092B9001092B80008951092BB001092AB
:10050000BA001092B5001092B4001092B700109289
:10051000B6001092B9001092B8008DE99FEF909349
:10052000A2008093A10008952091C0003091C100E5
:1005300082EC90E02A3031057CF400D000D000D06D
:10054000EDB7FEB73196ADB7BEB712969C938E93BA
:10055000119780E690E00EC000D000D000D0EDB73B
:10056000FEB73196ADB7BEB712969C938E93119796
:1005700085E690E093838283358324830E9454042C
:100580008DB79EB706960FB6F8949EBF0FBE8DBF6F
:100590002091BE003091BF0085EC90E02A303105FB
:1005A0007CF400D000D000D0EDB7FEB73196ADB7E7
:1005B000BEB712969C938E93119780E690E00EC082
:1005C00000D000D000D0EDB7FEB73196ADB7BEB7C2
:1005D00012969C938E93119785E690E09383828385
:1005E000358324830E9454048DB79EB706960FB6B8
:1005F000F8949EBF0FBE8DBF2091BC003091BD000E
:1006000088EC90E02A3031057CF400D000D000D096
:10061000EDB7FEB73196ADB7BEB712969C938E93E9
:10062000119789E690E00EC000D000D000D0EDB761
:10063000FEB73196ADB7BEB712969C938E931197C5
:100640008DE690E093838283358324830E94540453
:100650008DB79EB706960FB6F8949EBF0FBE8DBF9E
:100660000895CF93DF93C8ECD0E00E94F3000E947E
:1006700094020E948F0080E060E00E94850082EC7E
:1006800090E00E94780080E061E00E94850080E7B1
:1006900090E00E94780080E197E2FE013197F1F747
:1006A0000197D9F7E2CF0F931F93CF93DF938091F8
:1006B000A1009091A20097FD5AC0C091B600D091C0
:1006C000B70002EC10E0209739F50E9411022DB717
:1006D0003EB7285030400FB6F8943EBF0FBE2DBF36
:1006E000EDB7FEB73196ADB7BEB712961C930E9319
:1006F000119721E830E0338322832091B4003091B8
:10070000B50035832483868317820E9454042DB755
:100710003EB7285F3F4F25C00E941102ADB7BEB75C
:100720001A970FB6F894BEBF0FBEADBFEDB7FEB7B8
:10073000319612961C930E93119726E830E033837E
:1007400022832091B4003091B500358324838683C1
:100750001782D187C0870E9454042DB73EB7265F09
:100760003F4F0FB6F8943EBF0FBE2DBF06C082ECC0
:1007700090E06DE870E00E944D04DF91CF911F91F1
:100780000F9108950F931F93CF93DF9312BA00E256
:100790001EE40E942101EC018091A1009091A20031
:1007A000C817D907B1F3CE010E9489010E942E0219
:1007B0000E9453030E948F0080E061E00E94850048
:1007C00082EC90E00E947800C8010197F1F7D09385
:1007D000A200C093A100DDCF0E949F000E9497005D
:1007E0000E94C20380E090E008950F931F93CF937F
:1007F000DF93EC0102EC10E0C8016FE870E00E94AA
:100800004D04D7FD1FC000D000D000D0EDB7FEB71B
:100810003196ADB7BEB712961C930E93119782E92D
:1008200090E093838283CD55DF4F88818483158246
:100830000E9454048DB79EB706960FB6F8949EBFDB
:100840000FBE8DBFDF91CF911F910F9108950F9330
:100850001F93CF93DF9312BA00E21EE40E9421019E
:10086000EC018091A1009091A200C817D907B1F3C3
:10087000CE010E94F5030E948F0080E061E00E949B
:10088000850082EC90E00E947800C8010197F1F7A2
:10089000D093A200C093A100E1CFFB01DC01019045
:1008A0000D920020E1F70895AEE0B0E0EAE5F4E053
:1008B0000C9403070D891E8986E08C831A830983B3
:1008C0008FEF9FE79E838D839E01275E3F4FCE0172
:1008D00001966F89788DA9010E9478042F8138854F
:1008E000020F131FF80110822E96E4E00C941F07EC
:1008F000ABE0B0E0EEE7F4E00C94F5063C012B0130
:100900005A01FC0117821682838181FD03C06FEFBB
:100910007FEFC6C19AE0892E1E010894211C311C6C
:10092000F3012381F20123FD859123FF81912F01A2
:10093000882309F4B2C1853239F423FD859123FF60
:1009400081912F01853229F490E0B3010E946B065A
:10095000E7CF982FFF24EE249924FFE1FF15D0F074
:100960009B3269F09C3228F4903259F0933291F422
:100970000EC09D3249F0903369F441E024C052E04A
:10098000F52A84E0F82A28C098E0F92A25C0E0E199
:10099000FE2A22C0F7FC29C0892F80538A3070F4C8
:1009A000F6FE05C0989C902C1124980E15C0E89C6A
:1009B000E02C1124E80EF0E2FF2A0EC09E3229F44A
:1009C000F6FC6BC140E4F42A07C09C3619F450E8E9
:1009D000F52A02C0983649F4F20123FD959123FFD0
:1009E00091912F01992309F0B8CF892F8554833035
:1009F00018F08052833038F444E050E0A40EB51E65
:100A00005FE359830FC0933631F0933779F0933514
:100A100009F056C020C0F5018081898342E050E092
:100A2000A40EB51E610101E010E012C0F501C08006
:100A3000D180F6FC03C06FEF7FEF02C0692D70E03C
:100A400042E050E0A40EB51EC6010E9460068C0173
:100A50005FE7F52214C0F501C080D180F6FC03C029
:100A60006FEF7FEF02C0692D70E042E050E0A40E0E
:100A7000B51EC6010E9455068C0150E8F52AF3FE0A
:100A800007C01AC080E290E0B3010E946B06EA94AE
:100A90008E2D90E008171907A8F30EC0F601F7FC99
:100AA0008591F7FE81916F0190E0B3010E946B0682
:100AB000E110EA94015010400115110579F7EAC0E0
:100AC000943611F0993669F5F7FE08C0F5012081DA
:100AD00031814281538184E090E00AC0F501808138
:100AE00091819C01442737FD4095542F82E090E08E
:100AF000A80EB91E9FE6F92257FF09C050954095F0
:100B0000309521953F4F4F4F5F4FE0E8FE2ACA01D5
:100B1000B901A1012AE030E00E949706D82ED21830
:100B200040C0953729F41F2D1F7E2AE030E01DC0FC
:100B30001F2D197F9F3661F0903720F4983509F00A
:100B4000ACC00FC0903739F0983709F0A6C004C088
:100B500028E030E00AC0106114FD146020E130E0AC
:100B600004C014FD166020E132E017FF08C0F50153
:100B7000608171818281938144E050E008C0F50179
:100B800080819181BC0180E090E042E050E0A40EC1
:100B9000B51EA1010E949706D82ED2188FE7F82E15
:100BA000F122F6FE0BC05EEFF522D91438F4F4FE04
:100BB00007C0F2FC05C08FEEF82202C01D2D01C057
:100BC000192DF4FE0DC0FE01ED0DF11D8081803365
:100BD00019F499EEF92208C01F5FF2FE05C003C0A8
:100BE0008F2D867809F01F5F0F2DF3FC14C0F0FEE7
:100BF0000FC01E1510F09D2C0BC09D2C9E0C911A41
:100C00001E2D06C080E290E0B3010E946B061F5FBC
:100C10001E15C0F304C01E1510F4E11A01C0EE2425
:100C200004FF0FC080E390E0B3010E946B0602FF57
:100C30001DC001FD03C088E790E00EC088E590E08C
:100C40000BC0802F867891F001FF02C08BE201C0BB
:100C500080E2F7FC8DE290E0B3010E946B0606C0D3
:100C600080E390E0B3010E946B069A94D914C0F31C
:100C7000DA94F101ED0DF11D808190E0B3010E9445
:100C80006B06DD20A9F706C080E290E0B3010E9468
:100C90006B06EA94EE20C1F743CEF30166817781BB
:100CA000CB012B96E2E10C941107FC0105906150F9
:100CB00070400110D8F7809590958E0F9F1F089572
:100CC000FC016150704001900110D8F7809590951B
:100CD0008E0F9F1F08950F931F93CF93DF938C0167
:100CE000EB018B8181FF1BC082FF0DC02E813F81F4
:100CF0008C819D812817390764F4E881F98101937B
:100D0000F983E88306C0E885F985802F0995892B4A
:100D100031F48E819F8101969F838E8302C00FEFF5
:100D20001FEFC801DF91CF911F910F910895FA0134
:100D3000AA27283051F1203181F1E8946F936E7F1A
:100D40006E5F7F4F8F4F9F4FAF4FB1E03ED0B4E00B
:100D50003CD0670F781F891F9A1FA11D680F791F4C
:100D60008A1F911DA11D6A0F711D811D911DA11D5D
:100D700020D009F468943F912AE0269F112430196D
:100D8000305D3193DEF6CF010895462F4770405D08
:100D90004193B3E00FD0C9F7F6CF462F4F70405DB7
:100DA0004A3318F0495D31FD4052419302D0A9F712
:100DB000EACFB4E0A6959795879577956795BA950C
:100DC000C9F700976105710508959B01AC010A2ED2
:100DD00006945795479537952795BA95C9F7620FA9
:100DE000731F841F951FA01D08952F923F924F924D
:100DF0005F926F927F928F929F92AF92BF92CF92AB
:100E0000DF92EF92FF920F931F93CF93DF93CDB7B3
:100E1000DEB7CA1BDB0B0FB6F894DEBF0FBECDBF2B
:100E200009942A88398848885F846E847D848C84FC
:100E30009B84AA84B984C884DF80EE80FD800C8105
:100E40001B81AA81B981CE0FD11D0FB6F894DEBFE8
:0C0E50000FBECDBFED010895F894FFCF58
:100E5C003025643A0025643A00302564002564008E
:100E6C003235323837312020202032353238333980
:100E7C000025642563002564256325640020002D6E
:100E8C003100576369736E6965746F3A202563206E
:100E9C00009DFF3738392D3435362B313233432A08
:040EAC0030233D00B2
:00000001FF
